:100000000C942A000C9447000C9447000C94470071
:100010000C9447000C9447000C9447000C94470044
:100020000C9447000C9447000C9456020C942F0239
:100030000C9405020C947D020C9447000C94A402CD
:100040000C9447000C9447000C9447000C94470014
:100050000C94470011241FBECFE5D8E0DEBFCDBF12
:1000600010E0A0E6B0E0E6EEFBE002C005900D92E5
:10007000AA37B107D9F720E0AAE7B0E001C01D9286
:10008000AD38B207E1F70E942C010C94F1050C94F5
:10009000000088B3877F88BB000000002FE788E35B
:1000A00091E0215080409040E1F700C0000088B30B
:1000B000886088BB08958AB31ABA88B3846088BB05
:1000C00088B38D7F88BB0E9449008FEF8ABB88B3BD
:1000D0008B7F88BB0895CF93C82F0E945B008BB3A2
:1000E0008F709C2F907F892B8BBB88B38B7F88BBB5
:1000F0000E9449002BB330E1C39FC0011124922F0D
:100100009F70892B8BBB88B38B7F88BB0E94490073
:10011000CF910895CF93C82F8BB38F709C2F907F72
:10012000892B8BBB88B3826088BB88B38B7F88BBED
:100130000E9449002BB330E1C39FC0011124922FCC
:100140009F70892B8BBB88B3826088BB88B38B7F01
:1001500088BB0E944900CF91089581E00E946B0006
:1001600008958FE39CE90197F1F700C0000087B381
:100170008E6087BB88B3817F88BB8FEF8ABB8FE39C
:100180009CE90197F1F700C000000E94AD0082E0F9
:100190000E946B0088E20E946B0086E00E946B0068
:1001A00080E80E946B008FE00E946B0008950F931F
:1001B0001F93CF93DF938C01C0E0D0E017C00F5F97
:1001C0001F4F0E948A002196C031D10521F480EC96
:1001D0000E946B000BC0CE018097029738F40E94FA
:1001E000AD0080E80E946B00C0E0D0E0F8018081A3
:1001F0008111E5CFDF91CF911F910F9108950F935A
:100200001F93CF93DF93CDB7DEB727970FB6F89440
:10021000DEBF0FBECDBF9F938F9380E690E09F938C
:100220008F938E010F5F1F4F1F930F930E94070341
:10023000C8010E94D7000F900F900F900F900F9061
:100240000F9027960FB6F894DEBF0FBECDBFDF919B
:10025000CF911F910F910895CF93DF93CDB7DEB764
:1002600027970FB6F894DEBF0FBECDBF0E94B10036
:10027000198286E08C8380E28B8380E48A831D82EE
:100280001F821E82CE0101960E94800140E062E83A
:1002900070E081E00E94C4012091820030918300CF
:1002A0004091840050918500A8E8B3E10E94ED02DE
:1002B00020E038E240E050E00E94CB0220937E0034
:1002C00030937F0040938000509381008FE690E050
:1002D0000E94D70080917E0090917F000E94FF00D5
:1002E00086E790E00E94D7002FEF89E698E1215041
:1002F00080409040E1F700C000000E94AD00C6CFF2
:10030000CF93DF93EC0187E0FE01A6E8B0E0019017
:100310000D928A95E1F796B18881892B86B996B1BD
:100320008C81892B86B997B18A81892B87B997B13E
:100330008B81892B87B997B18981892B87B98C816A
:10034000883019F48FB780688FBF86B1806886B90E
:10035000288130E046B181E090E002C0880F991F0B
:100360004A95E2F799272817390719F486B180646E
:1003700086B9DF91CF91089580918600811103C0E5
:1003800086B1806486B908951F93CF93DF93EB0104
:10039000142F97B1907E97B997B1982B97B94AB31C
:1003A00021E030E0B90102C0660F771F8A95E2F7BD
:1003B000CB01809584238ABB0E94BC01111102C02D
:1003C000349BFECF8091880081110AC024B185B191
:1003D000837090E0982F8827822B998388830EC0A2
:1003E00024B1229526952695237085B190E0880F3B
:1003F000991F880F991F822B9983888386B18F7EDE
:1004000086B9DF91CF911F9108951F920F920FB679
:100410000F9211242F933F934F935F936F937F938A
:100420008F939F93AF93BF93EF93FF93E0917A00E5
:10043000F0917B000088F189E02D0995FF91EF9103
:10044000BF91AF919F918F917F916F915F914F91EC
:100450003F912F910F900FBE0F901F9018951F92F4
:100460000F920FB60F9211242F933F934F935F93E8
:100470006F937F938F939F93AF93BF93EF93FF936C
:10048000E0917C00F0917D000995FF91EF91BF9183
:10049000AF919F918F917F916F915F914F913F911C
:1004A0002F910F900FBE0F901F9018951F920F92D3
:1004B0000FB60F9211242F933F934F935F936F9337
:1004C0007F938F939F93AF93BF93EF93FF93E091AD
:1004D0007C00F0917D000995FF91EF91BF91AF9164
:1004E0009F918F917F916F915F914F913F912F914C
:1004F0000F900FBE0F901F9018951F920F920FB67E
:100500000F9211242F933F934F935F936F937F9399
:100510008F939F93AF93BF93EF93FF93E0917C00F2
:10052000F0917D000995FF91EF91BF91AF919F915F
:100530008F917F916F915F914F913F912F910F908C
:100540000FBE0F901F9018951F920F920FB60F922B
:1005500011242F933F934F935F936F937F938F93C8
:100560009F93AF93BF93EF93FF93E0917C00F09143
:100570007D000995FF91EF91BF91AF919F918F9170
:100580007F916F915F914F913F912F910F900FBE8F
:100590000F901F901895A1E21A2EAA1BBB1BFD01FC
:1005A0000DC0AA1FBB1FEE1FFF1FA217B307E40752
:1005B000F50720F0A21BB30BE40BF50B661F771FAA
:1005C000881F991F1A9469F760957095809590958A
:1005D0009B01AC01BD01CF0108950E94F802A59FC7
:1005E000900DB49F900DA49F800D911D112408952E
:1005F000A29FB001B39FC001A39F700D811D112464
:10060000911DB29F700D811D1124911D0895AEE0C2
:10061000B0E0EDE0F3E00C94C8050D891E8986E09A
:100620008C831A8309838FEF9FE79E838D83AE01AE
:10063000475E5F4F6F89788DCE0101960E94290336
:10064000EF81F885E00FF11F10822E96E4E00C9404
:10065000E405ABE0B0E0EFE2F3E00C94BA056C0126
:100660007B018A01FC0117821682838181FFCCC144
:10067000CE0101963C01F6019381F70193FD85912E
:1006800093FF81917F01882309F4BAC1853239F43F
:1006900093FD859193FF81917F01853229F4B60105
:1006A00090E00E942005E7CF912C212C312CFFE116
:1006B000F315D8F08B3279F038F4803279F0833248
:1006C000A1F4232D20611DC08D3261F0803369F4C7
:1006D000232D216016C0832D8260382EE32DE46027
:1006E0003E2E2AC0F32DF8601DC037FC2DC020ED32
:1006F000280F2A3040F08E32B9F436FC81C1232D08
:100700002064322E19C036FE06C08AE0989E200D65
:100710001124922E11C0EAE02E9E200D1124222ECB
:10072000F32DF0623F2E08C08C3621F4832D8068B3
:10073000382E02C0883641F4F70193FD859193FF6E
:1007400081917F018111B3CF982F9F7D9554933074
:1007500028F40C5F1F4F9FE399830DC0833631F05F
:10076000833771F0833509F059C021C0F8018081C9
:1007700089830E5F1F4F88248394912C530113C0EB
:100780002801F2E04F0E511CF801A080B18036FE26
:1007900003C0692D70E002C06FEF7FEFC5010E94BA
:1007A00015054C018201F32DFF773F2E16C028015D
:1007B00022E0420E511CF801A080B18036FE03C039
:1007C000692D70E002C06FEF7FEFC5010E940A053E
:1007D0004C01F32DF0683F2E820133FC1BC0822DAB
:1007E00090E088169906B0F4B60180E290E00E948D
:1007F00020052A94F4CFF50137FC859137FE8191CD
:100800005F01B60190E00E94200521102A9421E0AA
:10081000821A91088114910471F7E8C0843611F0AE
:10082000893641F5F80137FE07C060817181828108
:1008300093810C5F1F4F08C060817181072E000CEF
:10084000880B990B0E5F1F4FF32DFF763F2E97FFFE
:1008500009C090958095709561957F4F8F4F9F4F00
:10086000F0683F2E2AE030E0A3010E945C05882E4C
:10087000861845C0853731F4232D2F7EB22E2AE00D
:1008800030E025C0932D997FB92E8F36C1F018F432
:10089000883579F0B5C0803719F0883721F0B0C0BD
:1008A000E92FE061BE2EB4FE0DC0FB2DF460BF2E1B
:1008B00009C034FE0AC0292F2660B22E06C028E0E7
:1008C00030E005C020E130E002C020E132E0F80174
:1008D000B7FE07C060817181828193810C5F1F4FD9
:1008E00006C06081718180E090E00E5F1F4FA30120
:1008F0000E945C05882E8618FB2DFF773F2E36FE62
:100900000DC0232D2E7FA22E891458F434FE0BC067
:1009100032FC09C0832D8E7EA82E05C0B82CA32CD6
:1009200003C0B82C01C0B92CA4FE0FC0FE01E80D15
:10093000F11D8081803321F49A2D997EA92E09C062
:10094000A2FE06C0B394B39404C08A2D867809F041
:10095000B394A3FC11C0A0FE06C0B21488F4280C06
:10096000922C9B180EC0B21460F4B60180E290E0A5
:100970000E942005B394F7CFB21418F42B1802C0CC
:10098000982C212CA4FE10C0B60180E390E00E94B8
:100990002005A2FE17C0A1FC03C088E790E002C0BA
:1009A00088E590E0B6010CC08A2D867859F0A1FE4A
:1009B00002C08BE201C080E2A7FC8DE2B60190E0AC
:1009C0000E942005891438F4B60180E390E00E946B
:1009D00020059A94F7CF8A94F301E80DF11D8081E8
:1009E000B60190E00E9420058110F5CF222009F485
:1009F00042CEB60180E290E00E9420052A94F6CF14
:100A0000F6018681978102C08FEF9FEF2B96E2E17E
:100A10000C94D605FC010590615070400110D8F788
:100A2000809590958E0F9F1F0895FC016150704036
:100A300001900110D8F7809590958E0F9F1F089513
:100A40000F931F93CF93DF93FB01238121FD03C0FD
:100A50008FEF9FEF2CC022FF16C046815781248163
:100A600035814217530744F4A081B1819D012F5F66
:100A70003F4F318320838C93268137812F5F3F4FF7
:100A80003783268314C08B01EC01FB010084F185C0
:100A9000E02D0995892BE1F6D80116968D919C9150
:100AA0001797019617969C938E931697CE01DF9118
:100AB000CF911F910F910895FA01AA27283051F183
:100AC000203181F1E8946F936E7F6E5F7F4F8F4F7F
:100AD0009F4FAF4FB1E03ED0B4E03CD0670F781FDE
:100AE000891F9A1FA11D680F791F8A1F911DA11DC3
:100AF0006A0F711D811D911DA11D20D009F46894FC
:100B00003F912AE0269F11243019305D3193DEF6A3
:100B1000CF010895462F4770405D4193B3E00FD059
:100B2000C9F7F6CF462F4F70405D4A3318F0495D44
:100B300031FD4052419302D0A9F7EACFB4E0A69527
:100B40009795879577956795BA95C9F70097610549
:100B5000710508959B01AC010A2E0694579547959F
:100B600037952795BA95C9F7620F731F841F951F94
:100B7000A01D08952F923F924F925F926F927F92A5
:100B80008F929F92AF92BF92CF92DF92EF92FF929D
:100B90000F931F93CF93DF93CDB7DEB7CA1BDB0B49
:100BA0000FB6F894DEBF0FBECDBF09942A883988EE
:100BB00048885F846E847D848C849B84AA84B984F5
:100BC000C884DF80EE80FD800C811B81AA81B98101
:100BD000CE0FD11D0FB6F894DEBF0FBECDBFED0115
:060BE0000895F894FFCF18
:100BE6002564002D00257325642E256F346400547A
:0A0BF600656D703A200020430000F6
:00000001FF
